:020000040000FA
:1000000000E00320E1040000090500000B050000EA
:100010000D0500000F05000011050000130500008C
:1000200000000000000000000000000015050000B6
:100030001705000000000000190500001B05000066
:100040000000000000000000000000001D0500008E
:10005000000000001D05000000000000000000007E
:100060001D0500001D0500001D0500001D05000008
:10007000000000001D0500001D0500001D0500001A
:100080001D0500001D05000000000000000000002C
:100090001D0500001D05000000000000000000001C
:1000A0001D05000000000000000000001D0500000C
:1000B0001D0500001D0500001D0500001D050000B8
:1000C0001D0500001D0500001D0500001D050000A8
:1000D0001D050000000000001D05000000000000DC
:1000E0001D050000000000001D05000000000000CC
:1000F0001D050000000000000000000000000000DE
:10010000000000001D0500000000000000000000CD
:1001100000000000000000000000000000000000DF
:10012000000000001D0500000000000000000000AD
:1001300000000000000000000000000000000000BF
:100140001D0500000000000000000000000000008D
:100150000000000010B5054C237833B9044B13B1EF
:10016000044800E000BF0123237010BD3C040020C0
:10017000000000004407000008B5034B1BB1034911
:10018000034800E000BF08BD00000000400400205C
:1001900044070000A3F5803A704700BF174B002BBF
:1001A00008BF134B9D46FFF7F5FF00218B460F4616
:1001B0001348144A121A00F05FF80E4B002B00D0BF
:1001C00098470D4B002B00D09847002000210400D9
:1001D0000D000D48002802D00C4800F00DF900F089
:1001E00027F82000290000F071F900F011F800BF95
:1001F00000000800000000000000000000E00320F4
:100200003C0400205C040020F90300000504000009
:1002100008B50021044600F08BF8044B1868C36B46
:1002200003B19847204600F04FF900BF4007000097
:1002300070B50D4E0D4D761BB61006D0002401345E
:1002400055F8043B9847A642F9D1094E00F06CFAE4
:10025000084D761BB61006D00024013455F8043B37
:100260009847A642F9D170BD300400203004002028
:10027000380400203004002070B5860748D0541E92
:10028000002A3FD0CAB2034601E0013C3AD303F84A
:10029000012B9D07F9D1032C2DD9CDB20F2C45EAA6
:1002A000052545EA054536D9A4F1100C03F1200EC9
:1002B00003F110022CF00F064FEA1C1CB64442E971
:1002C000045542E9025510327245F8D10CF1010291
:1002D00014F00C0F04F00F0C03EB021213D0ACF16E
:1002E000040323F003030433134442F8045B9342F2
:1002F000FBD10CF003042CB1CAB21C4403F8012B4F
:100300009C42FBD170BD64461346002CF4D1F9E742
:1003100003461446BFE71A46A446E0E7024B13B172
:10032000024800F069B870470000000005040000B2
:100330002DE9F84F2E4B83460F4618682DED028BA2
:1003400000F076F82B4BD3F80080D8F84861A6B1BE
:1003500008EE10BA4FF001094FF0000A7468651EEC
:100360000BD4013406EB84047FB1D4F80031BB42D6
:100370000BD0013D043C6B1CF6D11D4BBDEC028B38
:100380001868BDE8F84F00F055B873682268013B63
:10039000AB420CBF7560C4F800A0002AE9D009FA8E
:1003A00005F1D6F88801D6F804B001420BD1904788
:1003B00072685A4513D1D8F84831B342D9D01E4695
:1003C000002ECBD1D9E7D6F88C0101420CD1D4F85C
:1003D000801018EE100A904772685A45EBD0D8F892
:1003E0004861002EBAD1C8E7D4F880009047DFE713
:1003F0002804002040070000002301461A46184642
:1004000000F01AB838B5084B084D5B1B9C1007D09C
:10041000043B1D44013C55F804399847002CF9D1A0
:10042000BDE8384000F086B93C04002038040020C4
:10043000704700BF704700BF2DE9F047DFF884A088
:10044000064698460F46DAF800009146FFF7F0FF9F
:100450001B4B1B68D3F8484134B365681F2D28DC5B
:100460005EB96B1C0235DAF80000636044F8257051
:10047000FFF7E0FF0020BDE8F08704EB85010123D2
:10048000022EC1F8889003FA05F3D4F8882142EAD5
:100490000302C4F88821C1F80881E2D1D4F88C2184
:1004A0001343C4F88C31DCE703F5A674C3F8484164
:1004B000D3E7DAF80000FFF7BDFF4FF0FF30DAE7CF
:1004C0004007000028040020FEE700BF5A22034B2B
:1004D000C3F8102EC3F8002EFEE700BF00900350B3
:1004E0000649074A074B9B1A03DD043BC858D05006
:1004F000FBDC00F015F8FFF751FE00006807000074
:10050000000000203C040020FEE7FEE7FEE7FEE7D7
:10051000FEE7FEE7FEE7FEE7FEE7FEE7FEE700BFD9
:100520004FF47F03D3F83021D3F83431BFF34F8F2A
:10053000092A06D14FF050230022C3F81421C3F832
:1005400018214FF47F03D3F83021D3F83431BFF3AF
:100550004F8F092A7ED04FF47F03D3F83021D3F890
:100560003431BFF34F8F092A6DD04FF47F03D3F896
:100570003021D3F83431BFF34F8F092A5CD04FF4C8
:100580007F03D3F83021D3F83431BFF34F8F092ADA
:1005900006D100210122584BC3F80C17C3F81027CD
:1005A000564B5748194603F1F8520968043B02F5C7
:1005B0009C2283421160F5D1BFF34F8F5148002236
:1005C000D0F87C37504923F01003C0F87C3707E09F
:1005D000D3F80003D3F80433B2F5807F03600BD067
:1005E0000868BFF34F8FD300013003F57F0302F19A
:1005F000010201F10801EBD1444BDA69BFF34F8FDF
:10060000D10730D41B6ABFF34F8F01332BD0404B3F
:10061000D3F88C2042F44062C3F88C20D3F88820B1
:1006200042F47002C3F88820BFF34F8FBFF36F8F7F
:10063000384B394A1A607047012BA0D10E22374B34
:10064000C3F8E42E9BE7012B8FD001222A4BC3F87D
:1006500078258AE7012B7FF47EAF274AC2F8383A23
:10066000C2F8783577E7BFF34F8F2D4AD2F80034C0
:10067000012BFBD12A49C2F80435D1F80034012BF3
:10068000FBD1224BDA69BFF34F8FD2070AD5DA6963
:1006900022F00102DA61BFF34F8F214AD2F8003411
:1006A000012BFBD1194B1A6ABFF34F8F013214D0C3
:1006B00000231B4AC2F80435D2F80034012BFBD1C9
:1006C000BFF34F8F1249174BCA6802F4E06213431D
:1006D000CB60BFF34F8F00BFFDE71A6A22F0FF0225
:1006E00042F020021A62BFF34F8F0D4AD2F8003455
:1006F000012BFBD1DCE700BF00400050FC0FFF00E6
:10070000FCFFFE00003000500003FF000080FF00EF
:1007100000ED00E02C0400200090D00300A0035066
:10072000009003500400FA05F8B500BFF8BC08BCFF
:100730009E467047F8B500BFF8BC08BC9E4670479F
:100740000000002000000000000000000000000089
:100750000000000000000000000000000000000099
:1007600034FAFF7F0100000000000000EC020020CE
:1007700054030020BC030020000000000000000023
:100780000000000000000000000000000000000069
:100790000000000000000000000000000000000059
:1007A0000000000000000000000000000000000049
:1007B0000000000000000000000000000000000039
:1007C0000000000000000000000000000000000029
:1007D0000000000000000000000000000000000019
:1007E0000000000000000000000000000000000009
:1007F00000000000000000000000000000000000F9
:1008000000000000000000000000000000000000E8
:1008100001000000000000000E33CDAB34126DE685
:10082000ECDE05000B0000000000000000000000EE
:1008300000000000000000000000000000000000B8
:1008400000000000000000000000000000000000A8
:100850000000000000000000000000000000000098
:100860000000000000000000000000000000000088
:100B9000580400200090D0031D03000079010000DC
:040BA00055010000FB
:00000001FF